:020000040800F2
:10000000380C0020C90100089B06000821060008E2
:10001000990600083D020008FD0B000800000000E2
:10002000000000000000000000000000E5080008DB
:100030003F0200080000000041070008BD09000859
:10004000E3010008E3010008E3010008E301000800
:10005000E3010008E3010008E3010008E3010008F0
:10006000E3010008E3010008E3010008E3010008E0
:10007000E3010008E3010008E3010008E3010008D0
:10008000E3010008E3010008E3010008E3010008C0
:10009000E3010008E3010008E3010008E3010008B0
:1000A000E3010008E3010008E3010008E3010008A0
:1000B000E3010008E3010008E3010008E301000890
:1000C000E3010008E3010008E3010008E301000880
:1000D000E3010008650A0008E3010008E3010008E5
:1000E000E3010008E3010008E3010008E301000860
:1000F000E3010008E3010008E3010008E301000850
:10010000E3010008E3010008E3010008E30100083F
:10011000E3010008E3010008E3010008E30100082F
:10012000E3010008E3010008E3010008E30100081F
:10013000E3010008E3010008E3010008E30100080F
:10014000E3010008E3010008E3010008E3010008FF
:10015000E3010008E3010008E3010008E3010008EF
:10016000E3010008E3010008E3010008E3010008DF
:10017000E3010008E3010008E3010008E3010008CF
:10018000E3010008E3010008E3010008E3010008BF
:10019000E3010008E3010008E3010008E3010008AF
:1001A000E3010008E3010008E3010008DFF80CD0D8
:1001B00000F032F800480047510E0008380C0020CB
:1001C00080F30888704700000648804706480047CB
:1001D000FEE7FEE7FEE7FEE7FEE7FEE7FEE7FEE7F7
:1001E000FEE7FEE7010A0008AD01000830B50B4646
:1001F000014600202022012409E021FA02F59D4257
:1002000005D303FA02F5491B04FA02F52844151E2A
:10021000A2F10102F1DC30BD064C074D06E0E068BA
:1002200040F0010394E8070098471034AC42F6D33D
:10023000FFF7C0FFA80F0008C80F0008FEE77047CF
:1002400070B586B00121084600F07CFA012110202B
:1002500000F086FA00248DF8164001208DF8170072
:1002600002258DF815508DF81450400204901C4E54
:1002700004A9304600F0C5F88DF8145069020491C5
:1002800004A9304600F0BDF807220A21304600F0EC
:10029000F6F807220921304600F0F1F84FF4E1307A
:1002A0000090ADF80440ADF80640ADF80840ADF858
:1002B0000C400C20ADF80A000A4C6946204600F0BC
:1002C0003BFC00F0EBF9012240F22551204600F002
:1002D00018FC0121204600F0E1FB06B070BD0000D3
:1002E000000002400010014001B503480099016080
:1002F00001680029FCD108BD2800002070B5064621
:100300000025002905D0012927D0022928D04FF443
:10031000407500F065F809281ED1134C206820F4C0
:1003200040702060206828432060206820F0F8009A
:100330002060206846F0020108432060206840F4F5
:100340008030206000F04CF8216821F0020121602B
:10035000216821F0F801216070BD4FF48075D8E765
:100360004FF40075D5E70000103C024009200D490C
:100370000A68D20301D5012070470A68D20601D568
:10038000062070470A68D20501D5022070470A6826
:1003900012F0E00F01D00720704709688907FBD5EC
:1003A000082070470C3C02400248016841F00041BF
:1003B00001607047103C02400068704705480068C3
:1003C000002805DA034804490C380160034901603C
:1003D00070470000103C024023016745AB89EFCD18
:1003E00008B509200090FFF7C1FF009002E0FFF779
:1003F000BDFF00909DF800000128F8D09DF8000096
:1004000008BD2DE9F041002201274FF0030C07FA47
:1004100002F50B682B40AB422CD1066853000CFA56
:1004200003F4A64306600E79D0F800809E4046EAA9
:10043000080606600E79012E01D0022E12D18668C0
:10044000A64386604E79D0F808809E4046EA0806AA
:1004500086604668AE43466045688E799640B6B27F
:1004600035434560C568A543C560CC799C40C368E9
:100470001C43C460521C102AC9D3BDE8F08110B5DA
:100480004B07DB0E9A40C90800EB8100016A0F247C
:100490009C40A1430162016A1143016210BD418386
:1004A0007047000010B501460020A1F100624FF432
:1004B00080439A4204D345480844984201D2082018
:1004C00010BD43480844984201D2102010BD414855
:1004D0000844984201D2182010BD3F484FF48034A0
:1004E0000844A04201D2202010BD3C484FF4003205
:1004F0000844904201D2282010BD39480844904257
:1005000001D2302010BD37480844904201D2382033
:1005100010BD35480844904201D2402010BD3348F8
:100520000844904201D2482010BD3148084490420E
:1005300001D2502010BD2F480844904201D25820CB
:1005400010BDA1F10160984201D2802010BD2A485F
:100550000844984201D2882010BD28480844984297
:1005600001D2902010BD26480844984201D298201C
:1005700010BD24480844A04201D2A02010BD22484A
:100580000844904201D2A82010BD2048084490425F
:1005900001D2B02010BD1E480844904201D2B820BC
:1005A00010BD1C480844904201D2C02010BD1A481A
:1005B0000844904201D2C82010BD18480844904217
:1005C00001D2D02010BDD82010BD000000C0FFF720
:1005D0000080FFF70040FFF70000FFF70000FEF784
:1005E0000000FCF70000FAF70000F8F70000F6F74B
:1005F0000000F4F70000F2F700C0EFF70080EFF71B
:100600000040EFF70000EFF70000EEF70000ECF716
:100610000000EAF70000E8F70000E6F70000E4F762
:10062000FEE700002DE9FC410121882000F08AF856
:100630004FF48065009501218DF8041000208DF89D
:1006400006008DF807108DF80500114F69463846F1
:10065000FFF7D7FE6C00009469463846FFF7D1FEDD
:100660006600009669463846FFF7CBFE0094094FB6
:1006700069463846FFF7C5FE054918310D800C80E4
:100680000E8021463846FFF70AFFBDE8FC810000D6
:10069000001C0240000C0240FEE7704708B54FF412
:1006A000A06000F043F825208DF8000001208DF8AF
:1006B00001008DF802008DF80300684600F002F892
:1006C00008BD000030B50F23C27801250178002A4B
:1006D0001FD0154A126802F4E062C2F5E062C2F36C
:1006E0000722C2F10404D3404278A24084781C401F
:1006F0001443220101F1E02181F80024007800F088
:100700001F018D404009800000F1E020C0F8005139
:1007100030BD01F01F0085404809800000F1E02055
:10072000C0F8805130BD00000CED00E002490843E4
:1007300002490860704700000000FA050CED00E077
:1007400070470000054A002903D011680143116079
:1007500070471168814311607047000030380240D3
:10076000054A002903D011680143116070471168E0
:1007700081431160704700004438024070B5244B3B
:10078000196801F00C01234C00291ED0224E0429C7
:100790001DD008291DD00460196801F0F001090975
:1007A0001E4A545C0168E14041601C6804F4E05456
:1007B000A40A145D21FA04F484601B6803F4604306
:1007C0005B0BD25CD140C16070BD0460E4E70660A1
:1007D000E2E70F4A121F1168C1F38055116801F05A
:1007E0003F0135B1B6FBF1F11468C4F388146143DD
:1007F00005E0B4FBF1F11468C4F388146143126896
:10080000C2F30142521C5200B1FBF2F10160C3E796
:10081000083802400024F40040787D0114000020D4
:100820002DE9F04104460F4690460026B4F1006FD2
:1008300030D3A0072ED1FFF7C1FD254604EB880871
:1008400015482C4685420FD310E02846FFF7B4FD2B
:10085000401C08D02846FFF725FE0221FFF74EFD79
:1008600006460EB102E02D1D4545EED33EB108E02F
:100870002046396800F014F818B9241D3F1D44457E
:10088000F6D30648016841F400710160BDE8F0410B
:10089000FFF78ABDBDE8F0810000FF1F003C024069
:1008A00070B505460E4600240A20FFF71DFD0C4AD0
:1008B000106820F440701060106840F40070106000
:1008C000106840F001001060106840F002001060F5
:1008D0002E60106820F001001060204670BD0000FE
:1008E000103C0240704700001CB5002101910091AE
:1008F0002E4A106840F4803010604FF4A043106816
:1009000000F4003000900198401C0190009810B94C
:1009100001989842F3D11068800302D5012000901D
:1009200000E00091009801283FD120484030016844
:1009300041F0805101601E49086840F44040086061
:100940001A48083003680360036843F400430360F7
:10095000036843F4A0530360041F164B236013681D
:1009600043F08073136013689B01FCD50A6842F45E
:1009700080320A604A68D203FCD50A6842F4003229
:100980000A604A689203FCD50B4A40F20571116077
:10099000016821F003010160016841F0020101607A
:1009A0000168C1F381010229FAD11CBD003802405F
:1009B00000700040195A4007003C024000F048B85F
:1009C0000C480D490068B0FBF1F0401EB0F1807F8B
:1009D00001D301200AE04FF0E0214861074AF020EE
:1009E000107000208861072008610020002800D0D6
:1009F000FEE7704700000020A086010023ED00E024
:100A000010B50F48016841F0010101600C4A002156
:100A10000832116002680B4B1A400260031D0A4A3B
:100A20001A60026822F48022026005480C300160DE
:100A3000FFF75AFF05494FF00060086010BD000045
:100A400000380240FFFFF6FE1030002408ED00E001
:100A500003480168002902D00168491E01607047FF
:100A60002800002010B50A4C40F22551204600F025
:100A700028F800280AD0A088C1B2064A1068B0F54C
:100A8000343F03D2044B1954401C106010BD0000C9
:100A9000001001402400002000100020002904D094
:100AA000818941F4005181817047818921F400518D
:100AB000818170470246002012880A4200D001203E
:100AC000704770B5002440F66A12C1F3421301F07A
:100AD0001F05012606FA05F2012B0CD0022B0DD0C2
:100AE000838A1340090A8E40008830400BB100B160
:100AF0000124204670BD83891340F3E7038A134025
:100B0000F0E710B540F66A13C1F3421301F01F0479
:100B10000121A140012B07D0022B07D014303AB19C
:100B200002680A43026010BD0C30F8E71030F6E7A7
:100B300002688A43026010BD7FB504460D46208AD4
:100B400020F44051E88808432082A08941F20C61DA
:100B50008843A9882A8911436A8902431143A181E4
:100B6000A08A20F44071A8890843A0826846FFF754
:100B700005FE1E48844202D01D48844201D10398DC
:100B800000E00298A189090408D500EBC00101EB3F
:100B9000001029684900B0FBF1F007E000EBC0014C
:100BA00001EB001029688900B0FBF1F06422B0FB72
:100BB000F2F109010B096FF018056B4300EB83009C
:100BC000A3891D044FF0320307D503EBC000B0FB2F
:100BD000F2F000F00700084306E003EB0010B0FB62
:100BE000F2F000F00F00084320817FBD00100140AB
:100BF00000140140C1F3080181807047FEE7000046
:100C00000FB4054B10B503A9044A029800F018F878
:100C100010BC5DF814FB0000950D000830000020AA
:100C200002E008C8121F08C1002AFAD170477047B5
:100C3000002001E001C1121F002AFBD17047000013
:100C40002DE9FF4F89B09B460446002506E0252884
:100C50000BD05A460B999047641C6D1C20780028D5
:100C6000F5D10DB02846BDE8F08F0027B846012227
:100C7000474900E0074314F8013F203B02FA03F024
:100C80000842F7D120782E2819D114F8010F47F027
:100C900004072A280ED06FF02F022078A0F130012F
:100CA00009290CD808EB880102EB410100EB01088F
:100CB000641CF2E70A98641C50F8048B0A902078B0
:100CC0000028CED0642808D0692806D075281ED008
:100CD0005A460B9990476D1C58E00A994FF00A0943
:100CE00001C90A91002802DA40422D2102E03905AB
:100CF00004D52B218DF82010012103E0F90704D041
:100D00002021F7E78A4608AE0DE00021FAE70A99AC
:100D10004FF00A0901C90A91F7E74946FFF766FA59
:100D2000303106F8011D0028F7D1ADEB060000F1C7
:100D30002009780701D44FF00108C84502DDA8EB6F
:100D4000090000E000208046002706E008A85A4677
:100D5000C05D0B9990476D1C7F1C5745F6DB04E086
:100D600030205A460B9990476D1CB8F10001A8F14C
:100D70000108F5DC05E016F8010B5A460B9990477F
:100D80006D1CB9F10001A9F10109F4DC641C65E7EF
:100D90000928010070B50446064DE1B22846FFF768
:100DA00029FF80212846FFF785FE0028F9D020463C
:100DB00070BD00000010014010B50168074A1140E5
:100DC000B1F1005F09D14168054C21600068FFF76F
:100DD000F7F92068BDE81040004710BD0000F02F73
:100DE0002C0000202DE9F04707460C4690460025D0
:100DF00000264FF400791BE0E0780006A17840EA75
:100E00000140617840EA012114F8040B08432946A7
:100E10000E4A6D1CADB242F821004A46954206D1F9
:100E200000250A493846FFF7FBFC07F50067361D29
:100E30004645E1D3002D06D02A463846BDE8F047A6
:100E40000249FFF7EDBCBDE8F08700003400002048
:100E500000240025FFF7F4F9FFF7B2FDFFF7E2FBEE
:100E6000214EDFF888804FF47A790827336873B110
:100E70009C420BD11D460024002030601CA0FFF7CF
:100E8000BFFE29461FA0FFF7BBFE00E09CB248460C
:100E9000FFF72AFAA5B120A0FFF7B2FE2348406869
:100EA000B7EB106F08D12A4621494046FFF79AFF59
:100EB00020A0FFF7A5FE06E022A0FFF7A1FE02E0BA
:100EC00025A0FFF79DFE2AA0FFF79AFED8F8041090
:100ED0004046B7EB116F02D1FFF76EFFC6E72BA0BC
:100EE000FFF78EFEC2E700002400002000C00008CB
:100EF000D3C3BBA7B3CCD0F2BDD3CAD5CDEAB3C957
:100F0000210D0A00B4FAC2EBB3A4B6C83A25644274
:100F1000797465730D0A0000BFAACABCB8FCD0C2C0
:100F2000B9CCBCFE2E2E2E0D0A00000000100020B1
:100F300000100020B9CCBCFEB8FCD0C2CDEAB3C9C9
:100F4000210D0A00B7C7464C415348D3A6D3C3B3BB
:100F5000CCD0F2210D0A0000C3BBD3D0BFC9D2D47C
:100F6000B8FCD0C2B5C4B9CCBCFE210D0A0000004B
:100F7000BFAACABCD6B4D0D0464C415348D3C3BB99
:100F8000A7B4FAC2EB21210D0A000000B7C7464CF6
:100F9000415348D3A6D3C3B3CCD0F22CCEDEB7A8EE
:100FA000D6B4D0D0210D0A00C80F000800000020E0
:100FB00034000000200C0008FC0F00083400002062
:100FC000CCDF0200300C00080095BA0A00000000D7
:100FD00000000000010203040607080900000000E9
:100FE00001020304010203040607080900000000CF
:0C0FF000000000000000000000000000F5
:04000005080001AD41
:00000001FF
